:060000000A128A11EE2F26
:100E80007E088A007F0882000A128A1140270A120F
:100E90008A118000840A04087D0603190034FF0AC1
:100EA0000319FE0A442F0A128A118F270A128A1187
:100EB00020300A128A116F270A128A110230F500B7
:100EC0004530F400A930F300F30B642FF40B642FCA
:100ED000F50B642F6B2F582F0A128A110028F2008D
:100EE000F101832F831203130C1E772F782F832F8A
:100EF00071087207F0007008840000089900013042
:100F0000F0007008F10771087207F00070088400A3
:100F100083130008031D8D2F8E2F722F0800831658
:100F200003178801890183160313860183120313B3
:100F30008601831603130F088F3940388F000F1472
:100F400018121815831603178715831603139A01B1
:100F5000193099008312031398171813831603137B
:100F60009816080048344F344C34413420344D3402
:100F700055344E3444344F342C34203445345334B7
:100F80005434453420344534533420344D344934BA
:100F900020344C344134423420343A344434203404
:100FA0003A34563420340D340A34203450347234F8
:100FB0006F346634653420347034F3346E346734FF
:100FC00061346D346534203431343034303420347D
:100FD0003B34293420340A340D34003483135C301C
:100FE000FD000730FE00B230FF00203084000A12FE
:100FF0008A1144270A128A1183010A128A11532F77
:08400000FF3FFF3FFF3FFF3FC0
:04400E00D420FF3F7C
:00000001FF
