:060000000A128A11E02F34
:100E4A00383400340A128A1148270A128A110A12FF
:100E5A008A11A3270A128A112C2F0A128A11002832
:100E6A007E088A007F0882000A128A1135270A1230
:100E7A008A118000840A04087D0603190034FF0AD7
:100E8A000319FE0A392F831603178801890183166D
:100E9A0003138801831203138801831603130F08AF
:100EAA008F3940388F000F1418121815831603173C
:100EBA008715831603139A011930990083120313B5
:100ECA0098171813831603139816080048344F34DA
:100EDA004C34413420344D3455344E3444344F3438
:100EEA002C34203445345334543445342034453476
:100EFA00533420344D34493420344C344134423450
:100F0A0020343A34443420343A34563420340D34BC
:100F1A000A34503472346F34663465342034703491
:100F2A00F3346E34673461346D34653420343134CB
:100F3A003034303420343B3429340034D22F8312F5
:100F4A0003130C1EA92FAA2FD22FF001F101C42FCF
:100F5A002130F5007630F400F40BB12FF50BB12FE8
:100F6A0000007008203E84008313000883120313D4
:100F7A0099000130F0070318F10A0030F1077108EF
:100F8A00803AFF0080307F02031DCD2F3930700276
:100F9A00031CD02FD12FAD2FA32F7108803AFF0049
:100FAA0080307F02031DDB2F39307002031CDE2FD5
:100FBA00DF2FA42F080083135830FD000730FE00EE
:100FCA006B30FF00203084000A128A1139270A1276
:100FDA008A110A128A1125270A128A11F2000A12A4
:100FEA008A1126270A128A11F300F001F1018301FE
:060FFA000A128A11272FE4
:08400000FF3FFF3FFF3FFF3FC0
:04400E00D420FF3F7C
:00000001FF
