:060000000A128A11122809
:10000800FE00030E83120313AC000408AD000A08B7
:10001800AE007F08AF000A128A11BF2D0A128A119A
:1000280015288317EF30FD000330FE00A730FF00CE
:10003800903084000A128A1136260A128A11831314
:10004800EF30FD000430FE005630FF00A030840081
:100058000A128A1136260A128A11B401B501B601AC
:10006800B701B801B901BA01BB0183010A128A11AB
:10007800A52C8312031338033904031D442845288B
:10008800032931301A06031D4A284B28C828B330E3
:10009800F0008030F1000A128A1194250A128A11A0
:1000A8003630F0008030F1000A128A1194250A12C5
:1000B8008A11831203133A08A900AA012908A40087
:1000C8002A08A5000A30A6000030A7003B300A1213
:1000D8008A11E7250A128A113B30F0000030F1003E
:1000E8000A128A1194250A128A119830F000803079
:1000F800F1000A128A1194250A128A113330F60087
:100108000030F700831203133A08A900AA0129084E
:10011800F0002A08F1001430F2000030F3000A124F
:100128008A110D260A128A117108F9007008F80060
:100138000A128A113E230A128A11770883120313BE
:10014800A5007608A4000A30A6000030A7003B30BE
:100158000A128A11E7250A128A113B30F000003092
:10016800F1000A128A1194250A128A11AB30F000A4
:100178008030F1000A128A1194250A128A1183121A
:100188000313B801B901032932301A06031DCD281B
:10019800CE28DE28B730F0008030F1000A128A112C
:1001A80094250A128A11023083120313B800003012
:1001B800B9000329B401B5013508803AFF00803041
:1001C8007F02031DE92801303402031CEC28ED28C6
:1001D800EE28F928831203131A0899000130B4078E
:1001E8000318B50A0030B507E0285F30F00080300A
:1001F800F1000A128A1194250A128A11C3280330C1
:1002080038063904031D09290A29652943291A08CA
:10021800A900AA0137082A06031D14293608290649
:1002280003191729182943291A08A900AA01290816
:10023800B6002A08B700B401B5013508803AFF00B6
:1002480080307F02031D2A2901303402031C2D2926
:100258002E292F294329BB30F0008030F1000A12E3
:100268008A1194250A128A118312031336089900F9
:100278000130B4070318B50A0030B507212920302A
:10028800831203131A06031D4A294B290B297C30B4
:10029800F0008030F1000A128A1194250A128A119E
:1002A8008312031336089900AF30F0008030F10054
:1002B8000A128A1194250A128A1183120313B801AB
:0402C800B901080070
:10040000FF1B0A2A83137F1883170008840A031925
:10041000FF0A080002308A000408840A82070034B8
:10042000503472346534733469346F346E346534E7
:1004300020346C3461342034623461347234723468
:100440006134203465347334703461346334693416
:10045000613464346F3472346134203463347534FD
:1004600061346E3464346F342034653473347434DE
:10047000E93420346C346934733474346F34203488
:100480000A340D340A340D3400340A340D34453442
:100490006C342034763461346C346F3472342034EC
:1004A000613463347434753461346C3420346434AE
:1004B00065346C34203470346F34743465346E3485
:1004C00063346934F3346D346534743472346F34A6
:1004D0002034653473343A34203400340A340D3413
:1004E000A1344534723472346F3472342C34203475
:1004F00069346E346734723465347334653420344F
:10050000313420346F342034323421340A340D3401
:100510000A340D3400340A340D340A340D344534B1
:100520006C34203441345334433449344934203416
:1005300072346534633469346234693464346F34DA
:1005400020346634753465343A3420340034203431
:1005500071347534653420346534713475346934DC
:10056000763461346C346534203461346C34203436
:100570007E34003425340A340D3400342E340A34E9
:100580000D34003431340A340D34003432340A343A
:100590000D3400340834003483120313A3007908A7
:1005A000A1007808A0007B08F1007A08F00021087B
:1005B000F3002008F2000A128A11EB240A128A11B1
:1005C000710883120313A1007008A0000130FC0021
:1005D0007C08A30720082104031DEF2AF02AD32A50
:1005E00023088400831380010130A3027B08F100FB
:1005F0007A08F0007908F3007808F2000A128A11EC
:100600002F250A128A117008FC007C08831203133C
:10061000A2007B08F1007A08F0007908F30078085E
:10062000F2000A128A11EB240A128A117108F900E9
:100630007008F8000A30831203132202031C212BD6
:10064000222B262B0730FC007C08A2073030FC0050
:100650007C08A2072208FC00230884007C0883137E
:1006600080000130A30278087904031D382B392B50
:10067000F62A0130FC007C08A3070800831203134C
:10068000A101F71F442B452B4C2BF609F709F60A5D
:100690000319F70AA101A10AF91F4F2B502B592B5F
:1006A000F809F909F80A0319F90A0130FA007A0879
:1006B000A106A201A301760877040319602B612B20
:1006C000982BA001A00A6F2B01300310F60DF70D37
:1006D000FF3E031D652B0130FA007A08A007F71FC3
:1006E000722B732B642B01300310A20DA30DFF3E60
:1006F000031D742B77087902031D802B760878027E
:10070000031C832B842B8B2B7608F8027708031CA1
:10071000F903F902221401300310F70CF60CFF3E26
:10072000031D8C2B0130A002031D972B982B732BDC
:10073000210803199C2B9D2BA22BA209A309A20A15
:100740000319A30A2308F7002208F60008000A3458
:100750000D344234693465346E34763465346E3425
:1007600069346434403420342D34203453346534B7
:100770006C3465346334633469346F346E34653497
:10078000203469346E3467347234653473346134C0
:100790006E3464346F34203473346F346C346F349B
:1007A000203465346C3420346E34FA346D3465345E
:1007B00072346F343A340A340D3431342E344C34BC
:1007C000653465347234203470346F347434653475
:1007D0006E3463346934F3346D3465347434723494
:1007E0006F342E340A340D3432342E3445346E34A2
:1007F0007634693461347234203441347334633470
:10080000693469342E340A340D34003401308316CF
:1008100003178800890101308316031385008312B2
:1008200003138501831603138801831203138801C0
:10083000831603130F088F3940388F000F141812D6
:100840001815831603178715831603139A01193099
:10085000990083120313981718138316031398161D
:100860008312031318163F309F05831603131F12BC
:100870009F12C330831203139F05831603139F1324
:10088000831203131F14023083120313B000B00B42
:10089000472C00008B170B17831603130C178312BA
:1008A00003130C13831603138C1608000A340D343B
:1008B000A13450346534723466346534633474342E
:1008C0006F3421340A340D34BF3451347534E93473
:1008D0002034633461347234E13463347434653405
:1008E000723420346F3420346E34FA346D3465340D
:1008F00072346F3420347134753469346534723431
:100900006534203465346E3476346934613472343D
:100910002034283475346E34613420346C346534BA
:1009200074347234613420346F34203475346E344E
:1009300020346434ED346734693474346F342934CA
:100940003F3420340A340D3400340A128A1106244C
:100950000A128A11831203139F18AF2CB02CB12CEA
:100960009F1438083904031DB62CB72CC62C9030C0
:10097000B0000130B1000A128A1169250A128A11E9
:10098000013083120313B8000030B900023038067A
:100990003904031DCC2CCD2CAA2CA030B000003083
:1009A000B1000A128A1169250A128A1101308312D4
:1009B0000313B0008030B1000A128A1169250A12AF
:1009C0008A11033083120313B8000030B900AA2C37
:1009D0000A128A111228F501F60170087104031930
:1009E000F22CF32C2A2DF701F70A012D0130031008
:1009F000F00DF10DFF3E031DF72C0130F4007408DB
:100A0000F707F11F042D052DF62C01300310F50D0D
:100A1000F60DFF3E031D062D71087302031D122DF6
:100A200070087202031C152D162D1D2D7008F20280
:100A30007108031CF303F302751401300310F10C69
:100A4000F00CFF3E031D1E2D0130F702031D292D62
:100A50002A2D052D7608F1007508F00008007008B1
:100A600071040319342D352D642DF501F50A432D3C
:100A700001300310F00DF10DFF3E031D392D013043
:100A8000F4007408F507F11F462D472D382D710825
:100A90007302031D4D2D70087202031C502D512D41
:100AA000572D7008F2027108031CF303F3020130A2
:100AB0000310F10CF00CFF3E031D582D0130F50220
:100AC000031D632D642D472D7308F1007208F0009B
:100AD000080083120313B301822D0C1E702D712D9B
:100AE000822D33083007840031080318310AFF00D3
:100AF0000A128A1100220A128A1199000130B200EA
:100B00003208B30733083007840031080318310A6C
:100B1000FF000A128A1100220A128A11003A031DEC
:100B2000922D932D6D2D0800F301AB2D0C1E992DE8
:100B30009A2DAB2D73087007840071080318710A91
:100B4000FF000A128A1100220A128A11990001304C
:100B5000F2007208F3077308700784007108031825
:100B6000710A83120313FF000A128A1100220A126B
:100B70008A11003A031DBD2DBE2D962D08000C1FB5
:100B8000C22DC32DD12D1F0CAB002B0C0F39003AF9
:100B9000031DCB2DCC2DD02D1E08AB002B08BA0089
:100BA0000C138C1ED42DD52DDA2D0A128A113D205E
:100BB0000A128A11831203132F08FF002E088A00DD
:100BC0002D0884002C0E8300FE0E7E0E0900831279
:100BD0000313A800A51FED2DEE2DFE2D2D30FD00D9
:100BE000280884007D08831380000130FD007D0803
:100BF000A807A409A509A40A0319A50A2508F9004C
:100C00002408F8002708FB002608FA0028080A1222
:100C10008A11CC220A128A110800F401F501701C15
:100C2000122E132E192E7208F4070318F50A7308F2
:100C3000F50701300310F20DF30DFF3E031D1A2ED0
:100C400001300310F10CF00CFF3E031D212E700843
:100C50007104031D2C2E2D2E0F2E7508F100740823
:100C6000F00008007E088A007F0882000A128A11BC
:100C700032260A128A118000840A04087D060319AC
:0A0C80000034FF0A0319FE0A362EA5
:08400000FF3FFF3FFF3FFF3FC0
:04400E00D420FF3F7C
:00000001FF
