:060000000A128A110C280F
:10000800FE00030EF0000A08F1000A128A115828AF
:100018000A128A110F2883010A128A113E288316B0
:1000280003178801890183160313880183120313B8
:100038008801831603130F088F3940388F000F1477
:1000480018121815831603178715831603139A01B8
:100058001930990083120313981718138316031382
:1000680098168312031318168B170B17831603138E
:100078008C1608000A128A1113200A128A112130DC
:10008800F3007630F200F20B4728F30B4728000004
:10009800831203130C1E512852284328080899007C
:1000A80043280A128A110C28831203138C1E5D2818
:1000B8005E2860281A08880071088A00700E83007C
:0600C800FE0E7E0E090091
:08400000FF3FFF3FFF3FFF3FC0
:04400E00D420FF3F7C
:00000001FF
